:100000000C9434000C9446000C9446000C9446006A
:100010000C9446000C9446000C9446000C94460048
:100020000C9446000C9446000C9446000C94460038
:100030000C9446000C9446000C9446000C94460028
:100040000C9448000C9446000C9446000C94460016
:100050000C9446000C9446000C9446000C94460008
:100060000C9446000C94460011241FBECFEFD4E040
:10007000DEBFCDBF11E0A0E0B1E001C01D92A13014
:10008000B107E1F70E94A4000C94B6000C940000A4
:100090001F920F920FB60F9211248F93809100013F
:1000A0008F5F809300018F910F900FBE0F901F9074
:1000B00018958FEF8AB914B885B5836085BD81E046
:1000C00080936E00789408959C0180E090E006C0D3
:1000D0006D3371051CF00AC060E070E043B14E6FF3
:1000E0004F3FB1F303C06D33710524F443B14E6F3C
:1000F0004E3FC9F346B5240F311D562F4427240F18
:10010000351F16BC6D33710524F4019680329105BC
:1001100018F3C90108951BB86D337105A4F455E0B7
:10012000959587955A95E1F722E08830920754F427
:100130001BB821E0813E92071CF081E08BB9089545
:100140001BB808951BB808950E94590016BC109260
:1001500000016091000180E090E070E00E94640086
:100160006091000170E00E948B00F0CFF894FFCF07
:00000001FF
